{
  "_format": "hh-sol-artifact-1",
  "contractName": "ChainportUtils",
  "sourceName": "contracts/ChainportUtils.sol",
  "abi": [
    {
      "inputs": [
        {
          "internalType": "bytes32",
          "name": "c__0x99f33f08",
          "type": "bytes32"
        }
      ],
      "name": "c_0x99f33f08",
      "outputs": [],
      "stateMutability": "pure",
      "type": "function"
    },
    {
      "inputs": [
        {
          "internalType": "address",
          "name": "user",
          "type": "address"
        },
        {
          "internalType": "address",
          "name": "token",
          "type": "address"
        }
      ],
      "name": "tokenBalance",
      "outputs": [
        {
          "internalType": "uint256",
          "name": "",
          "type": "uint256"
        }
      ],
      "stateMutability": "view",
      "type": "function"
    },
    {
      "inputs": [
        {
          "internalType": "address",
          "name": "user",
          "type": "address"
        },
        {
          "internalType": "address[]",
          "name": "tokens",
          "type": "address[]"
        }
      ],
      "name": "tokenBalances",
      "outputs": [
        {
          "internalType": "uint256[]",
          "name": "",
          "type": "uint256[]"
        }
      ],
      "stateMutability": "view",
      "type": "function"
    },
    {
      "stateMutability": "payable",
      "type": "receive"
    }
  ],
  "bytecode": "0x608060405234801561001057600080fd5b50610dbb806100206000396000f3fe6080604052600436106100385760003560e01c80631049334f146100a95780633ad206cc146100e6578063eb660cdd14610123576100a4565b366100a4576100697f9025764e3e51cb522afd1a8dcd571a267f1ff00a9700eaeed73c654c8484e32f60001b61014c565b6040517f08c379a000000000000000000000000000000000000000000000000000000000815260040161009b9061085d565b60405180910390fd5b600080fd5b3480156100b557600080fd5b506100d060048036038101906100cb91906108ef565b61014f565b6040516100dd9190610948565b60405180910390f35b3480156100f257600080fd5b5061010d60048036038101906101089190610abc565b6103fe565b60405161011a9190610bd6565b60405180910390f35b34801561012f57600080fd5b5061014a60048036038101906101459190610c2e565b61014c565b005b50565b600061017d7f739714ef76ba97dd23f3a07c5201bea550b20c9ad916f30c92e11f57be5f25e560001b61014c565b6101a97ff93bceab57b94a9b68115ad631b268266e5e3673cf9b7d20e8f60f64e0faa3dc60001b61014c565b6101d57f4a8d108b3037cb2db195d52f903dbbe31a39dc1f14f1c700f82be7f5e5c6267660001b61014c565b60006102037fd233fc84e27e1ca28e23b4b60dc4a94fe002d59047d51a0519338a36038bdc6060001b61014c565b823b90506102337fcb81ec80dffff7e7df6b9370b17f70af65d4ed97203eea17d88c35e19900903060001b61014c565b61025f7fa3ee47e47acf3adf60fdd803b0d53ea22c52c3cd194258d4f318fac0aab28f0c60001b61014c565b600081111561036e576102947f6b2ac41d9e11adff67ddf97fe4474e6d9e512246ed751cc208a83a6e617089d960001b61014c565b6102c07f40346ca86f16f2a1581178aeb47e5bab7e88415130ee315847780d2a0031208860001b61014c565b6102ec7f0196e470ab2e93303adc2d6c126823585311c07ccb4bb1c2874d39fdfbdcc6bd60001b61014c565b8273ffffffffffffffffffffffffffffffffffffffff166370a08231856040518263ffffffff1660e01b81526004016103259190610c6a565b602060405180830381865afa158015610342573d6000803e3d6000fd5b505050506040513d601f19601f820116820180604052508101906103669190610cb1565b9150506103f8565b61039a7f897c8ec6cf5126b6e4182003cacb4ff1fa89288cf6414327fce6279f6dcd128960001b61014c565b6103c67fb7a383cce6f7be20764dc1b532f3480273fd66d776e1eecd41d0cb5dd5f4b2f660001b61014c565b6103f27fe7c63246359efd193f6fef0fae91cc678a9e80e04e1dd866029ed232abb7982d60001b61014c565b60009150505b92915050565b606061042c7ffd359d7896ae290e6233f1ff8fff9c8a2d14f51e20f8205652e3393cd71d5a3660001b61014c565b6104587fb525cca0f745468ca816452676782fd0e494b8d3b267f0f06e1c53eaddcf9eeb60001b61014c565b6104847f811e411d221ce6ba3f67dd21e285f01dbd2ad32a1bff1d87cfc8c3c847b1ec3860001b61014c565b6000825167ffffffffffffffff8111156104a1576104a0610979565b5b6040519080825280602002602001820160405280156104cf5781602001602082028036833780820191505090505b5090506104fe7f37e027c33101bce3c15cdccb0f39aea4186bb3b6cfb2d4300d34a83cfabbb52960001b61014c565b61052a7f88da1bec01f56b7b507f6bf3d1340bc722ebc56091e6e5e524fdb1b17078269a60001b61014c565b60005b8351811015610777576105627f9a311cc7a39b3c7efb51d7ab6066f80ff90a833e379597b1b407388df5a7da8760001b61014c565b61058e7f8159e84764f804c0997850c6c048eff6d4c72fbefbc4a0fb55ac606ab32aee3a60001b61014c565b600073ffffffffffffffffffffffffffffffffffffffff168482815181106105b9576105b8610cde565b5b602002602001015173ffffffffffffffffffffffffffffffffffffffff16146106a8576106087f7d2bfad8b6a66d570c44afc0e495dc09049e8153ceb0d520a5d97cbcd599913f60001b61014c565b6106347fd2c02ec13a85cfb3f1f2a37c2e7809609f585fa9131fac1b38b9abd9f110f92f60001b61014c565b6106607f179b314a73f0177ad0d1b467187142ea8c693b91a19a04b80e7ca9df54559f4360001b61014c565b6106848585838151811061067757610676610cde565b5b602002602001015161014f565b82828151811061069757610696610cde565b5b602002602001018181525050610764565b6106d47f6fce03b70d7dd3e348559d5051fe9037a67c8ec09ace6e917329053420c4f4ca60001b61014c565b6107007f5a18fa1e317e74e0a378fd882d6d3601010635100c942011823b54f3f0f0ea4a60001b61014c565b61072c7f4531697cd0180c67068727a739d5384af1ab23af967eea65a69e0f058fe0f8da60001b61014c565b8473ffffffffffffffffffffffffffffffffffffffff163182828151811061075757610756610cde565b5b6020026020010181815250505b808061076f90610d3c565b91505061052d565b506107a47fb67fbf0cb093ea2f4505fd2a50900b5d5b4d63fae7ae4fffebcf21078668188160001b61014c565b6107d07f9757d41f324b55eadf296f8ea4c739a8df37079878bdae8c5377705ccfeb023d60001b61014c565b8091505092915050565b600082825260208201905092915050565b7f436861696e706f72745574696c7320646f6573206e6f7420616363657074207060008201527f61796d656e747300000000000000000000000000000000000000000000000000602082015250565b60006108476027836107da565b9150610852826107eb565b604082019050919050565b600060208201905081810360008301526108768161083a565b9050919050565b6000604051905090565b600080fd5b600080fd5b600073ffffffffffffffffffffffffffffffffffffffff82169050919050565b60006108bc82610891565b9050919050565b6108cc816108b1565b81146108d757600080fd5b50565b6000813590506108e9816108c3565b92915050565b6000806040838503121561090657610905610887565b5b6000610914858286016108da565b9250506020610925858286016108da565b9150509250929050565b6000819050919050565b6109428161092f565b82525050565b600060208201905061095d6000830184610939565b92915050565b600080fd5b6000601f19601f8301169050919050565b7f4e487b7100000000000000000000000000000000000000000000000000000000600052604160045260246000fd5b6109b182610968565b810181811067ffffffffffffffff821117156109d0576109cf610979565b5b80604052505050565b60006109e361087d565b90506109ef82826109a8565b919050565b600067ffffffffffffffff821115610a0f57610a0e610979565b5b602082029050602081019050919050565b600080fd5b6000610a38610a33846109f4565b6109d9565b90508083825260208201905060208402830185811115610a5b57610a5a610a20565b5b835b81811015610a845780610a7088826108da565b845260208401935050602081019050610a5d565b5050509392505050565b600082601f830112610aa357610aa2610963565b5b8135610ab3848260208601610a25565b91505092915050565b60008060408385031215610ad357610ad2610887565b5b6000610ae1858286016108da565b925050602083013567ffffffffffffffff811115610b0257610b0161088c565b5b610b0e85828601610a8e565b9150509250929050565b600081519050919050565b600082825260208201905092915050565b6000819050602082019050919050565b610b4d8161092f565b82525050565b6000610b5f8383610b44565b60208301905092915050565b6000602082019050919050565b6000610b8382610b18565b610b8d8185610b23565b9350610b9883610b34565b8060005b83811015610bc9578151610bb08882610b53565b9750610bbb83610b6b565b925050600181019050610b9c565b5085935050505092915050565b60006020820190508181036000830152610bf08184610b78565b905092915050565b6000819050919050565b610c0b81610bf8565b8114610c1657600080fd5b50565b600081359050610c2881610c02565b92915050565b600060208284031215610c4457610c43610887565b5b6000610c5284828501610c19565b91505092915050565b610c64816108b1565b82525050565b6000602082019050610c7f6000830184610c5b565b92915050565b610c8e8161092f565b8114610c9957600080fd5b50565b600081519050610cab81610c85565b92915050565b600060208284031215610cc757610cc6610887565b5b6000610cd584828501610c9c565b91505092915050565b7f4e487b7100000000000000000000000000000000000000000000000000000000600052603260045260246000fd5b7f4e487b7100000000000000000000000000000000000000000000000000000000600052601160045260246000fd5b6000610d478261092f565b91507fffffffffffffffffffffffffffffffffffffffffffffffffffffffffffffffff821415610d7a57610d79610d0d565b5b60018201905091905056fea26469706673582212203e67c5dc0dfbdd0590eaaf5d1644ff8359180921c8844b111ce9ea832525e46364736f6c634300080b0033",
  "linkReferences": {},
  "deployedLinkReferences": {}
}