{
  "contracts/ChainportUtils.sol": {
    "ChainportUtils": {
      "abi": [
        {
          "inputs": [
            {
              "internalType": "bytes32",
              "name": "c__0x99f33f08",
              "type": "bytes32"
            }
          ],
          "name": "c_0x99f33f08",
          "outputs": [],
          "stateMutability": "pure",
          "type": "function"
        },
        {
          "inputs": [
            {
              "internalType": "address",
              "name": "user",
              "type": "address"
            },
            {
              "internalType": "address",
              "name": "token",
              "type": "address"
            }
          ],
          "name": "tokenBalance",
          "outputs": [
            {
              "internalType": "uint256",
              "name": "",
              "type": "uint256"
            }
          ],
          "stateMutability": "view",
          "type": "function"
        },
        {
          "inputs": [
            {
              "internalType": "address",
              "name": "user",
              "type": "address"
            },
            {
              "internalType": "address[]",
              "name": "tokens",
              "type": "address[]"
            }
          ],
          "name": "tokenBalances",
          "outputs": [
            {
              "internalType": "uint256[]",
              "name": "",
              "type": "uint256[]"
            }
          ],
          "stateMutability": "view",
          "type": "function"
        },
        {
          "stateMutability": "payable",
          "type": "receive"
        }
      ],
      "evm": {
        "bytecode": {
          "linkReferences": {},
          "object": "608060405234801561001057600080fd5b50610dbb806100206000396000f3fe6080604052600436106100385760003560e01c80631049334f146100a95780633ad206cc146100e6578063eb660cdd14610123576100a4565b366100a4576100697f9025764e3e51cb522afd1a8dcd571a267f1ff00a9700eaeed73c654c8484e32f60001b61014c565b6040517f08c379a000000000000000000000000000000000000000000000000000000000815260040161009b9061085d565b60405180910390fd5b600080fd5b3480156100b557600080fd5b506100d060048036038101906100cb91906108ef565b61014f565b6040516100dd9190610948565b60405180910390f35b3480156100f257600080fd5b5061010d60048036038101906101089190610abc565b6103fe565b60405161011a9190610bd6565b60405180910390f35b34801561012f57600080fd5b5061014a60048036038101906101459190610c2e565b61014c565b005b50565b600061017d7f739714ef76ba97dd23f3a07c5201bea550b20c9ad916f30c92e11f57be5f25e560001b61014c565b6101a97ff93bceab57b94a9b68115ad631b268266e5e3673cf9b7d20e8f60f64e0faa3dc60001b61014c565b6101d57f4a8d108b3037cb2db195d52f903dbbe31a39dc1f14f1c700f82be7f5e5c6267660001b61014c565b60006102037fd233fc84e27e1ca28e23b4b60dc4a94fe002d59047d51a0519338a36038bdc6060001b61014c565b823b90506102337fcb81ec80dffff7e7df6b9370b17f70af65d4ed97203eea17d88c35e19900903060001b61014c565b61025f7fa3ee47e47acf3adf60fdd803b0d53ea22c52c3cd194258d4f318fac0aab28f0c60001b61014c565b600081111561036e576102947f6b2ac41d9e11adff67ddf97fe4474e6d9e512246ed751cc208a83a6e617089d960001b61014c565b6102c07f40346ca86f16f2a1581178aeb47e5bab7e88415130ee315847780d2a0031208860001b61014c565b6102ec7f0196e470ab2e93303adc2d6c126823585311c07ccb4bb1c2874d39fdfbdcc6bd60001b61014c565b8273ffffffffffffffffffffffffffffffffffffffff166370a08231856040518263ffffffff1660e01b81526004016103259190610c6a565b602060405180830381865afa158015610342573d6000803e3d6000fd5b505050506040513d601f19601f820116820180604052508101906103669190610cb1565b9150506103f8565b61039a7f897c8ec6cf5126b6e4182003cacb4ff1fa89288cf6414327fce6279f6dcd128960001b61014c565b6103c67fb7a383cce6f7be20764dc1b532f3480273fd66d776e1eecd41d0cb5dd5f4b2f660001b61014c565b6103f27fe7c63246359efd193f6fef0fae91cc678a9e80e04e1dd866029ed232abb7982d60001b61014c565b60009150505b92915050565b606061042c7ffd359d7896ae290e6233f1ff8fff9c8a2d14f51e20f8205652e3393cd71d5a3660001b61014c565b6104587fb525cca0f745468ca816452676782fd0e494b8d3b267f0f06e1c53eaddcf9eeb60001b61014c565b6104847f811e411d221ce6ba3f67dd21e285f01dbd2ad32a1bff1d87cfc8c3c847b1ec3860001b61014c565b6000825167ffffffffffffffff8111156104a1576104a0610979565b5b6040519080825280602002602001820160405280156104cf5781602001602082028036833780820191505090505b5090506104fe7f37e027c33101bce3c15cdccb0f39aea4186bb3b6cfb2d4300d34a83cfabbb52960001b61014c565b61052a7f88da1bec01f56b7b507f6bf3d1340bc722ebc56091e6e5e524fdb1b17078269a60001b61014c565b60005b8351811015610777576105627f9a311cc7a39b3c7efb51d7ab6066f80ff90a833e379597b1b407388df5a7da8760001b61014c565b61058e7f8159e84764f804c0997850c6c048eff6d4c72fbefbc4a0fb55ac606ab32aee3a60001b61014c565b600073ffffffffffffffffffffffffffffffffffffffff168482815181106105b9576105b8610cde565b5b602002602001015173ffffffffffffffffffffffffffffffffffffffff16146106a8576106087f7d2bfad8b6a66d570c44afc0e495dc09049e8153ceb0d520a5d97cbcd599913f60001b61014c565b6106347fd2c02ec13a85cfb3f1f2a37c2e7809609f585fa9131fac1b38b9abd9f110f92f60001b61014c565b6106607f179b314a73f0177ad0d1b467187142ea8c693b91a19a04b80e7ca9df54559f4360001b61014c565b6106848585838151811061067757610676610cde565b5b602002602001015161014f565b82828151811061069757610696610cde565b5b602002602001018181525050610764565b6106d47f6fce03b70d7dd3e348559d5051fe9037a67c8ec09ace6e917329053420c4f4ca60001b61014c565b6107007f5a18fa1e317e74e0a378fd882d6d3601010635100c942011823b54f3f0f0ea4a60001b61014c565b61072c7f4531697cd0180c67068727a739d5384af1ab23af967eea65a69e0f058fe0f8da60001b61014c565b8473ffffffffffffffffffffffffffffffffffffffff163182828151811061075757610756610cde565b5b6020026020010181815250505b808061076f90610d3c565b91505061052d565b506107a47fb67fbf0cb093ea2f4505fd2a50900b5d5b4d63fae7ae4fffebcf21078668188160001b61014c565b6107d07f9757d41f324b55eadf296f8ea4c739a8df37079878bdae8c5377705ccfeb023d60001b61014c565b8091505092915050565b600082825260208201905092915050565b7f436861696e706f72745574696c7320646f6573206e6f7420616363657074207060008201527f61796d656e747300000000000000000000000000000000000000000000000000602082015250565b60006108476027836107da565b9150610852826107eb565b604082019050919050565b600060208201905081810360008301526108768161083a565b9050919050565b6000604051905090565b600080fd5b600080fd5b600073ffffffffffffffffffffffffffffffffffffffff82169050919050565b60006108bc82610891565b9050919050565b6108cc816108b1565b81146108d757600080fd5b50565b6000813590506108e9816108c3565b92915050565b6000806040838503121561090657610905610887565b5b6000610914858286016108da565b9250506020610925858286016108da565b9150509250929050565b6000819050919050565b6109428161092f565b82525050565b600060208201905061095d6000830184610939565b92915050565b600080fd5b6000601f19601f8301169050919050565b7f4e487b7100000000000000000000000000000000000000000000000000000000600052604160045260246000fd5b6109b182610968565b810181811067ffffffffffffffff821117156109d0576109cf610979565b5b80604052505050565b60006109e361087d565b90506109ef82826109a8565b919050565b600067ffffffffffffffff821115610a0f57610a0e610979565b5b602082029050602081019050919050565b600080fd5b6000610a38610a33846109f4565b6109d9565b90508083825260208201905060208402830185811115610a5b57610a5a610a20565b5b835b81811015610a845780610a7088826108da565b845260208401935050602081019050610a5d565b5050509392505050565b600082601f830112610aa357610aa2610963565b5b8135610ab3848260208601610a25565b91505092915050565b60008060408385031215610ad357610ad2610887565b5b6000610ae1858286016108da565b925050602083013567ffffffffffffffff811115610b0257610b0161088c565b5b610b0e85828601610a8e565b9150509250929050565b600081519050919050565b600082825260208201905092915050565b6000819050602082019050919050565b610b4d8161092f565b82525050565b6000610b5f8383610b44565b60208301905092915050565b6000602082019050919050565b6000610b8382610b18565b610b8d8185610b23565b9350610b9883610b34565b8060005b83811015610bc9578151610bb08882610b53565b9750610bbb83610b6b565b925050600181019050610b9c565b5085935050505092915050565b60006020820190508181036000830152610bf08184610b78565b905092915050565b6000819050919050565b610c0b81610bf8565b8114610c1657600080fd5b50565b600081359050610c2881610c02565b92915050565b600060208284031215610c4457610c43610887565b5b6000610c5284828501610c19565b91505092915050565b610c64816108b1565b82525050565b6000602082019050610c7f6000830184610c5b565b92915050565b610c8e8161092f565b8114610c9957600080fd5b50565b600081519050610cab81610c85565b92915050565b600060208284031215610cc757610cc6610887565b5b6000610cd584828501610c9c565b91505092915050565b7f4e487b7100000000000000000000000000000000000000000000000000000000600052603260045260246000fd5b7f4e487b7100000000000000000000000000000000000000000000000000000000600052601160045260246000fd5b6000610d478261092f565b91507fffffffffffffffffffffffffffffffffffffffffffffffffffffffffffffffff821415610d7a57610d79610d0d565b5b60018201905091905056fea26469706673582212203e67c5dc0dfbdd0590eaaf5d1644ff8359180921c8844b111ce9ea832525e46364736f6c634300080b0033",
          "opcodes": "PUSH1 0x80 PUSH1 0x40 MSTORE CALLVALUE DUP1 ISZERO PUSH2 0x10 JUMPI PUSH1 0x0 DUP1 REVERT JUMPDEST POP PUSH2 0xDBB DUP1 PUSH2 0x20 PUSH1 0x0 CODECOPY PUSH1 0x0 RETURN INVALID PUSH1 0x80 PUSH1 0x40 MSTORE PUSH1 0x4 CALLDATASIZE LT PUSH2 0x38 JUMPI PUSH1 0x0 CALLDATALOAD PUSH1 0xE0 SHR DUP1 PUSH4 0x1049334F EQ PUSH2 0xA9 JUMPI DUP1 PUSH4 0x3AD206CC EQ PUSH2 0xE6 JUMPI DUP1 PUSH4 0xEB660CDD EQ PUSH2 0x123 JUMPI PUSH2 0xA4 JUMP JUMPDEST CALLDATASIZE PUSH2 0xA4 JUMPI PUSH2 0x69 PUSH32 0x9025764E3E51CB522AFD1A8DCD571A267F1FF00A9700EAEED73C654C8484E32F PUSH1 0x0 SHL PUSH2 0x14C JUMP JUMPDEST PUSH1 0x40 MLOAD PUSH32 0x8C379A000000000000000000000000000000000000000000000000000000000 DUP2 MSTORE PUSH1 0x4 ADD PUSH2 0x9B SWAP1 PUSH2 0x85D JUMP JUMPDEST PUSH1 0x40 MLOAD DUP1 SWAP2 SUB SWAP1 REVERT JUMPDEST PUSH1 0x0 DUP1 REVERT JUMPDEST CALLVALUE DUP1 ISZERO PUSH2 0xB5 JUMPI PUSH1 0x0 DUP1 REVERT JUMPDEST POP PUSH2 0xD0 PUSH1 0x4 DUP1 CALLDATASIZE SUB DUP2 ADD SWAP1 PUSH2 0xCB SWAP2 SWAP1 PUSH2 0x8EF JUMP JUMPDEST PUSH2 0x14F JUMP JUMPDEST PUSH1 0x40 MLOAD PUSH2 0xDD SWAP2 SWAP1 PUSH2 0x948 JUMP JUMPDEST PUSH1 0x40 MLOAD DUP1 SWAP2 SUB SWAP1 RETURN JUMPDEST CALLVALUE DUP1 ISZERO PUSH2 0xF2 JUMPI PUSH1 0x0 DUP1 REVERT JUMPDEST POP PUSH2 0x10D PUSH1 0x4 DUP1 CALLDATASIZE SUB DUP2 ADD SWAP1 PUSH2 0x108 SWAP2 SWAP1 PUSH2 0xABC JUMP JUMPDEST PUSH2 0x3FE JUMP JUMPDEST PUSH1 0x40 MLOAD PUSH2 0x11A SWAP2 SWAP1 PUSH2 0xBD6 JUMP JUMPDEST PUSH1 0x40 MLOAD DUP1 SWAP2 SUB SWAP1 RETURN JUMPDEST CALLVALUE DUP1 ISZERO PUSH2 0x12F JUMPI PUSH1 0x0 DUP1 REVERT JUMPDEST POP PUSH2 0x14A PUSH1 0x4 DUP1 CALLDATASIZE SUB DUP2 ADD SWAP1 PUSH2 0x145 SWAP2 SWAP1 PUSH2 0xC2E JUMP JUMPDEST PUSH2 0x14C JUMP JUMPDEST STOP JUMPDEST POP JUMP JUMPDEST PUSH1 0x0 PUSH2 0x17D PUSH32 0x739714EF76BA97DD23F3A07C5201BEA550B20C9AD916F30C92E11F57BE5F25E5 PUSH1 0x0 SHL PUSH2 0x14C JUMP JUMPDEST PUSH2 0x1A9 PUSH32 0xF93BCEAB57B94A9B68115AD631B268266E5E3673CF9B7D20E8F60F64E0FAA3DC PUSH1 0x0 SHL PUSH2 0x14C JUMP JUMPDEST PUSH2 0x1D5 PUSH32 0x4A8D108B3037CB2DB195D52F903DBBE31A39DC1F14F1C700F82BE7F5E5C62676 PUSH1 0x0 SHL PUSH2 0x14C JUMP JUMPDEST PUSH1 0x0 PUSH2 0x203 PUSH32 0xD233FC84E27E1CA28E23B4B60DC4A94FE002D59047D51A0519338A36038BDC60 PUSH1 0x0 SHL PUSH2 0x14C JUMP JUMPDEST DUP3 EXTCODESIZE SWAP1 POP PUSH2 0x233 PUSH32 0xCB81EC80DFFFF7E7DF6B9370B17F70AF65D4ED97203EEA17D88C35E199009030 PUSH1 0x0 SHL PUSH2 0x14C JUMP JUMPDEST PUSH2 0x25F PUSH32 0xA3EE47E47ACF3ADF60FDD803B0D53EA22C52C3CD194258D4F318FAC0AAB28F0C PUSH1 0x0 SHL PUSH2 0x14C JUMP JUMPDEST PUSH1 0x0 DUP2 GT ISZERO PUSH2 0x36E JUMPI PUSH2 0x294 PUSH32 0x6B2AC41D9E11ADFF67DDF97FE4474E6D9E512246ED751CC208A83A6E617089D9 PUSH1 0x0 SHL PUSH2 0x14C JUMP JUMPDEST PUSH2 0x2C0 PUSH32 0x40346CA86F16F2A1581178AEB47E5BAB7E88415130EE315847780D2A00312088 PUSH1 0x0 SHL PUSH2 0x14C JUMP JUMPDEST PUSH2 0x2EC PUSH32 0x196E470AB2E93303ADC2D6C126823585311C07CCB4BB1C2874D39FDFBDCC6BD PUSH1 0x0 SHL PUSH2 0x14C JUMP JUMPDEST DUP3 PUSH20 0xFFFFFFFFFFFFFFFFFFFFFFFFFFFFFFFFFFFFFFFF AND PUSH4 0x70A08231 DUP6 PUSH1 0x40 MLOAD DUP3 PUSH4 0xFFFFFFFF AND PUSH1 0xE0 SHL DUP2 MSTORE PUSH1 0x4 ADD PUSH2 0x325 SWAP2 SWAP1 PUSH2 0xC6A JUMP JUMPDEST PUSH1 0x20 PUSH1 0x40 MLOAD DUP1 DUP4 SUB DUP2 DUP7 GAS STATICCALL ISZERO DUP1 ISZERO PUSH2 0x342 JUMPI RETURNDATASIZE PUSH1 0x0 DUP1 RETURNDATACOPY RETURNDATASIZE PUSH1 0x0 REVERT JUMPDEST POP POP POP POP PUSH1 0x40 MLOAD RETURNDATASIZE PUSH1 0x1F NOT PUSH1 0x1F DUP3 ADD AND DUP3 ADD DUP1 PUSH1 0x40 MSTORE POP DUP2 ADD SWAP1 PUSH2 0x366 SWAP2 SWAP1 PUSH2 0xCB1 JUMP JUMPDEST SWAP2 POP POP PUSH2 0x3F8 JUMP JUMPDEST PUSH2 0x39A PUSH32 0x897C8EC6CF5126B6E4182003CACB4FF1FA89288CF6414327FCE6279F6DCD1289 PUSH1 0x0 SHL PUSH2 0x14C JUMP JUMPDEST PUSH2 0x3C6 PUSH32 0xB7A383CCE6F7BE20764DC1B532F3480273FD66D776E1EECD41D0CB5DD5F4B2F6 PUSH1 0x0 SHL PUSH2 0x14C JUMP JUMPDEST PUSH2 0x3F2 PUSH32 0xE7C63246359EFD193F6FEF0FAE91CC678A9E80E04E1DD866029ED232ABB7982D PUSH1 0x0 SHL PUSH2 0x14C JUMP JUMPDEST PUSH1 0x0 SWAP2 POP POP JUMPDEST SWAP3 SWAP2 POP POP JUMP JUMPDEST PUSH1 0x60 PUSH2 0x42C PUSH32 0xFD359D7896AE290E6233F1FF8FFF9C8A2D14F51E20F8205652E3393CD71D5A36 PUSH1 0x0 SHL PUSH2 0x14C JUMP JUMPDEST PUSH2 0x458 PUSH32 0xB525CCA0F745468CA816452676782FD0E494B8D3B267F0F06E1C53EADDCF9EEB PUSH1 0x0 SHL PUSH2 0x14C JUMP JUMPDEST PUSH2 0x484 PUSH32 0x811E411D221CE6BA3F67DD21E285F01DBD2AD32A1BFF1D87CFC8C3C847B1EC38 PUSH1 0x0 SHL PUSH2 0x14C JUMP JUMPDEST PUSH1 0x0 DUP3 MLOAD PUSH8 0xFFFFFFFFFFFFFFFF DUP2 GT ISZERO PUSH2 0x4A1 JUMPI PUSH2 0x4A0 PUSH2 0x979 JUMP JUMPDEST JUMPDEST PUSH1 0x40 MLOAD SWAP1 DUP1 DUP3 MSTORE DUP1 PUSH1 0x20 MUL PUSH1 0x20 ADD DUP3 ADD PUSH1 0x40 MSTORE DUP1 ISZERO PUSH2 0x4CF JUMPI DUP2 PUSH1 0x20 ADD PUSH1 0x20 DUP3 MUL DUP1 CALLDATASIZE DUP4 CALLDATACOPY DUP1 DUP3 ADD SWAP2 POP POP SWAP1 POP JUMPDEST POP SWAP1 POP PUSH2 0x4FE PUSH32 0x37E027C33101BCE3C15CDCCB0F39AEA4186BB3B6CFB2D4300D34A83CFABBB529 PUSH1 0x0 SHL PUSH2 0x14C JUMP JUMPDEST PUSH2 0x52A PUSH32 0x88DA1BEC01F56B7B507F6BF3D1340BC722EBC56091E6E5E524FDB1B17078269A PUSH1 0x0 SHL PUSH2 0x14C JUMP JUMPDEST PUSH1 0x0 JUMPDEST DUP4 MLOAD DUP2 LT ISZERO PUSH2 0x777 JUMPI PUSH2 0x562 PUSH32 0x9A311CC7A39B3C7EFB51D7AB6066F80FF90A833E379597B1B407388DF5A7DA87 PUSH1 0x0 SHL PUSH2 0x14C JUMP JUMPDEST PUSH2 0x58E PUSH32 0x8159E84764F804C0997850C6C048EFF6D4C72FBEFBC4A0FB55AC606AB32AEE3A PUSH1 0x0 SHL PUSH2 0x14C JUMP JUMPDEST PUSH1 0x0 PUSH20 0xFFFFFFFFFFFFFFFFFFFFFFFFFFFFFFFFFFFFFFFF AND DUP5 DUP3 DUP2 MLOAD DUP2 LT PUSH2 0x5B9 JUMPI PUSH2 0x5B8 PUSH2 0xCDE JUMP JUMPDEST JUMPDEST PUSH1 0x20 MUL PUSH1 0x20 ADD ADD MLOAD PUSH20 0xFFFFFFFFFFFFFFFFFFFFFFFFFFFFFFFFFFFFFFFF AND EQ PUSH2 0x6A8 JUMPI PUSH2 0x608 PUSH32 0x7D2BFAD8B6A66D570C44AFC0E495DC09049E8153CEB0D520A5D97CBCD599913F PUSH1 0x0 SHL PUSH2 0x14C JUMP JUMPDEST PUSH2 0x634 PUSH32 0xD2C02EC13A85CFB3F1F2A37C2E7809609F585FA9131FAC1B38B9ABD9F110F92F PUSH1 0x0 SHL PUSH2 0x14C JUMP JUMPDEST PUSH2 0x660 PUSH32 0x179B314A73F0177AD0D1B467187142EA8C693B91A19A04B80E7CA9DF54559F43 PUSH1 0x0 SHL PUSH2 0x14C JUMP JUMPDEST PUSH2 0x684 DUP6 DUP6 DUP4 DUP2 MLOAD DUP2 LT PUSH2 0x677 JUMPI PUSH2 0x676 PUSH2 0xCDE JUMP JUMPDEST JUMPDEST PUSH1 0x20 MUL PUSH1 0x20 ADD ADD MLOAD PUSH2 0x14F JUMP JUMPDEST DUP3 DUP3 DUP2 MLOAD DUP2 LT PUSH2 0x697 JUMPI PUSH2 0x696 PUSH2 0xCDE JUMP JUMPDEST JUMPDEST PUSH1 0x20 MUL PUSH1 0x20 ADD ADD DUP2 DUP2 MSTORE POP POP PUSH2 0x764 JUMP JUMPDEST PUSH2 0x6D4 PUSH32 0x6FCE03B70D7DD3E348559D5051FE9037A67C8EC09ACE6E917329053420C4F4CA PUSH1 0x0 SHL PUSH2 0x14C JUMP JUMPDEST PUSH2 0x700 PUSH32 0x5A18FA1E317E74E0A378FD882D6D3601010635100C942011823B54F3F0F0EA4A PUSH1 0x0 SHL PUSH2 0x14C JUMP JUMPDEST PUSH2 0x72C PUSH32 0x4531697CD0180C67068727A739D5384AF1AB23AF967EEA65A69E0F058FE0F8DA PUSH1 0x0 SHL PUSH2 0x14C JUMP JUMPDEST DUP5 PUSH20 0xFFFFFFFFFFFFFFFFFFFFFFFFFFFFFFFFFFFFFFFF AND BALANCE DUP3 DUP3 DUP2 MLOAD DUP2 LT PUSH2 0x757 JUMPI PUSH2 0x756 PUSH2 0xCDE JUMP JUMPDEST JUMPDEST PUSH1 0x20 MUL PUSH1 0x20 ADD ADD DUP2 DUP2 MSTORE POP POP JUMPDEST DUP1 DUP1 PUSH2 0x76F SWAP1 PUSH2 0xD3C JUMP JUMPDEST SWAP2 POP POP PUSH2 0x52D JUMP JUMPDEST POP PUSH2 0x7A4 PUSH32 0xB67FBF0CB093EA2F4505FD2A50900B5D5B4D63FAE7AE4FFFEBCF210786681881 PUSH1 0x0 SHL PUSH2 0x14C JUMP JUMPDEST PUSH2 0x7D0 PUSH32 0x9757D41F324B55EADF296F8EA4C739A8DF37079878BDAE8C5377705CCFEB023D PUSH1 0x0 SHL PUSH2 0x14C JUMP JUMPDEST DUP1 SWAP2 POP POP SWAP3 SWAP2 POP POP JUMP JUMPDEST PUSH1 0x0 DUP3 DUP3 MSTORE PUSH1 0x20 DUP3 ADD SWAP1 POP SWAP3 SWAP2 POP POP JUMP JUMPDEST PUSH32 0x436861696E706F72745574696C7320646F6573206E6F74206163636570742070 PUSH1 0x0 DUP3 ADD MSTORE PUSH32 0x61796D656E747300000000000000000000000000000000000000000000000000 PUSH1 0x20 DUP3 ADD MSTORE POP JUMP JUMPDEST PUSH1 0x0 PUSH2 0x847 PUSH1 0x27 DUP4 PUSH2 0x7DA JUMP JUMPDEST SWAP2 POP PUSH2 0x852 DUP3 PUSH2 0x7EB JUMP JUMPDEST PUSH1 0x40 DUP3 ADD SWAP1 POP SWAP2 SWAP1 POP JUMP JUMPDEST PUSH1 0x0 PUSH1 0x20 DUP3 ADD SWAP1 POP DUP2 DUP2 SUB PUSH1 0x0 DUP4 ADD MSTORE PUSH2 0x876 DUP2 PUSH2 0x83A JUMP JUMPDEST SWAP1 POP SWAP2 SWAP1 POP JUMP JUMPDEST PUSH1 0x0 PUSH1 0x40 MLOAD SWAP1 POP SWAP1 JUMP JUMPDEST PUSH1 0x0 DUP1 REVERT JUMPDEST PUSH1 0x0 DUP1 REVERT JUMPDEST PUSH1 0x0 PUSH20 0xFFFFFFFFFFFFFFFFFFFFFFFFFFFFFFFFFFFFFFFF DUP3 AND SWAP1 POP SWAP2 SWAP1 POP JUMP JUMPDEST PUSH1 0x0 PUSH2 0x8BC DUP3 PUSH2 0x891 JUMP JUMPDEST SWAP1 POP SWAP2 SWAP1 POP JUMP JUMPDEST PUSH2 0x8CC DUP2 PUSH2 0x8B1 JUMP JUMPDEST DUP2 EQ PUSH2 0x8D7 JUMPI PUSH1 0x0 DUP1 REVERT JUMPDEST POP JUMP JUMPDEST PUSH1 0x0 DUP2 CALLDATALOAD SWAP1 POP PUSH2 0x8E9 DUP2 PUSH2 0x8C3 JUMP JUMPDEST SWAP3 SWAP2 POP POP JUMP JUMPDEST PUSH1 0x0 DUP1 PUSH1 0x40 DUP4 DUP6 SUB SLT ISZERO PUSH2 0x906 JUMPI PUSH2 0x905 PUSH2 0x887 JUMP JUMPDEST JUMPDEST PUSH1 0x0 PUSH2 0x914 DUP6 DUP3 DUP7 ADD PUSH2 0x8DA JUMP JUMPDEST SWAP3 POP POP PUSH1 0x20 PUSH2 0x925 DUP6 DUP3 DUP7 ADD PUSH2 0x8DA JUMP JUMPDEST SWAP2 POP POP SWAP3 POP SWAP3 SWAP1 POP JUMP JUMPDEST PUSH1 0x0 DUP2 SWAP1 POP SWAP2 SWAP1 POP JUMP JUMPDEST PUSH2 0x942 DUP2 PUSH2 0x92F JUMP JUMPDEST DUP3 MSTORE POP POP JUMP JUMPDEST PUSH1 0x0 PUSH1 0x20 DUP3 ADD SWAP1 POP PUSH2 0x95D PUSH1 0x0 DUP4 ADD DUP5 PUSH2 0x939 JUMP JUMPDEST SWAP3 SWAP2 POP POP JUMP JUMPDEST PUSH1 0x0 DUP1 REVERT JUMPDEST PUSH1 0x0 PUSH1 0x1F NOT PUSH1 0x1F DUP4 ADD AND SWAP1 POP SWAP2 SWAP1 POP JUMP JUMPDEST PUSH32 0x4E487B7100000000000000000000000000000000000000000000000000000000 PUSH1 0x0 MSTORE PUSH1 0x41 PUSH1 0x4 MSTORE PUSH1 0x24 PUSH1 0x0 REVERT JUMPDEST PUSH2 0x9B1 DUP3 PUSH2 0x968 JUMP JUMPDEST DUP2 ADD DUP2 DUP2 LT PUSH8 0xFFFFFFFFFFFFFFFF DUP3 GT OR ISZERO PUSH2 0x9D0 JUMPI PUSH2 0x9CF PUSH2 0x979 JUMP JUMPDEST JUMPDEST DUP1 PUSH1 0x40 MSTORE POP POP POP JUMP JUMPDEST PUSH1 0x0 PUSH2 0x9E3 PUSH2 0x87D JUMP JUMPDEST SWAP1 POP PUSH2 0x9EF DUP3 DUP3 PUSH2 0x9A8 JUMP JUMPDEST SWAP2 SWAP1 POP JUMP JUMPDEST PUSH1 0x0 PUSH8 0xFFFFFFFFFFFFFFFF DUP3 GT ISZERO PUSH2 0xA0F JUMPI PUSH2 0xA0E PUSH2 0x979 JUMP JUMPDEST JUMPDEST PUSH1 0x20 DUP3 MUL SWAP1 POP PUSH1 0x20 DUP2 ADD SWAP1 POP SWAP2 SWAP1 POP JUMP JUMPDEST PUSH1 0x0 DUP1 REVERT JUMPDEST PUSH1 0x0 PUSH2 0xA38 PUSH2 0xA33 DUP5 PUSH2 0x9F4 JUMP JUMPDEST PUSH2 0x9D9 JUMP JUMPDEST SWAP1 POP DUP1 DUP4 DUP3 MSTORE PUSH1 0x20 DUP3 ADD SWAP1 POP PUSH1 0x20 DUP5 MUL DUP4 ADD DUP6 DUP2 GT ISZERO PUSH2 0xA5B JUMPI PUSH2 0xA5A PUSH2 0xA20 JUMP JUMPDEST JUMPDEST DUP4 JUMPDEST DUP2 DUP2 LT ISZERO PUSH2 0xA84 JUMPI DUP1 PUSH2 0xA70 DUP9 DUP3 PUSH2 0x8DA JUMP JUMPDEST DUP5 MSTORE PUSH1 0x20 DUP5 ADD SWAP4 POP POP PUSH1 0x20 DUP2 ADD SWAP1 POP PUSH2 0xA5D JUMP JUMPDEST POP POP POP SWAP4 SWAP3 POP POP POP JUMP JUMPDEST PUSH1 0x0 DUP3 PUSH1 0x1F DUP4 ADD SLT PUSH2 0xAA3 JUMPI PUSH2 0xAA2 PUSH2 0x963 JUMP JUMPDEST JUMPDEST DUP2 CALLDATALOAD PUSH2 0xAB3 DUP5 DUP3 PUSH1 0x20 DUP7 ADD PUSH2 0xA25 JUMP JUMPDEST SWAP2 POP POP SWAP3 SWAP2 POP POP JUMP JUMPDEST PUSH1 0x0 DUP1 PUSH1 0x40 DUP4 DUP6 SUB SLT ISZERO PUSH2 0xAD3 JUMPI PUSH2 0xAD2 PUSH2 0x887 JUMP JUMPDEST JUMPDEST PUSH1 0x0 PUSH2 0xAE1 DUP6 DUP3 DUP7 ADD PUSH2 0x8DA JUMP JUMPDEST SWAP3 POP POP PUSH1 0x20 DUP4 ADD CALLDATALOAD PUSH8 0xFFFFFFFFFFFFFFFF DUP2 GT ISZERO PUSH2 0xB02 JUMPI PUSH2 0xB01 PUSH2 0x88C JUMP JUMPDEST JUMPDEST PUSH2 0xB0E DUP6 DUP3 DUP7 ADD PUSH2 0xA8E JUMP JUMPDEST SWAP2 POP POP SWAP3 POP SWAP3 SWAP1 POP JUMP JUMPDEST PUSH1 0x0 DUP2 MLOAD SWAP1 POP SWAP2 SWAP1 POP JUMP JUMPDEST PUSH1 0x0 DUP3 DUP3 MSTORE PUSH1 0x20 DUP3 ADD SWAP1 POP SWAP3 SWAP2 POP POP JUMP JUMPDEST PUSH1 0x0 DUP2 SWAP1 POP PUSH1 0x20 DUP3 ADD SWAP1 POP SWAP2 SWAP1 POP JUMP JUMPDEST PUSH2 0xB4D DUP2 PUSH2 0x92F JUMP JUMPDEST DUP3 MSTORE POP POP JUMP JUMPDEST PUSH1 0x0 PUSH2 0xB5F DUP4 DUP4 PUSH2 0xB44 JUMP JUMPDEST PUSH1 0x20 DUP4 ADD SWAP1 POP SWAP3 SWAP2 POP POP JUMP JUMPDEST PUSH1 0x0 PUSH1 0x20 DUP3 ADD SWAP1 POP SWAP2 SWAP1 POP JUMP JUMPDEST PUSH1 0x0 PUSH2 0xB83 DUP3 PUSH2 0xB18 JUMP JUMPDEST PUSH2 0xB8D DUP2 DUP6 PUSH2 0xB23 JUMP JUMPDEST SWAP4 POP PUSH2 0xB98 DUP4 PUSH2 0xB34 JUMP JUMPDEST DUP1 PUSH1 0x0 JUMPDEST DUP4 DUP2 LT ISZERO PUSH2 0xBC9 JUMPI DUP2 MLOAD PUSH2 0xBB0 DUP9 DUP3 PUSH2 0xB53 JUMP JUMPDEST SWAP8 POP PUSH2 0xBBB DUP4 PUSH2 0xB6B JUMP JUMPDEST SWAP3 POP POP PUSH1 0x1 DUP2 ADD SWAP1 POP PUSH2 0xB9C JUMP JUMPDEST POP DUP6 SWAP4 POP POP POP POP SWAP3 SWAP2 POP POP JUMP JUMPDEST PUSH1 0x0 PUSH1 0x20 DUP3 ADD SWAP1 POP DUP2 DUP2 SUB PUSH1 0x0 DUP4 ADD MSTORE PUSH2 0xBF0 DUP2 DUP5 PUSH2 0xB78 JUMP JUMPDEST SWAP1 POP SWAP3 SWAP2 POP POP JUMP JUMPDEST PUSH1 0x0 DUP2 SWAP1 POP SWAP2 SWAP1 POP JUMP JUMPDEST PUSH2 0xC0B DUP2 PUSH2 0xBF8 JUMP JUMPDEST DUP2 EQ PUSH2 0xC16 JUMPI PUSH1 0x0 DUP1 REVERT JUMPDEST POP JUMP JUMPDEST PUSH1 0x0 DUP2 CALLDATALOAD SWAP1 POP PUSH2 0xC28 DUP2 PUSH2 0xC02 JUMP JUMPDEST SWAP3 SWAP2 POP POP JUMP JUMPDEST PUSH1 0x0 PUSH1 0x20 DUP3 DUP5 SUB SLT ISZERO PUSH2 0xC44 JUMPI PUSH2 0xC43 PUSH2 0x887 JUMP JUMPDEST JUMPDEST PUSH1 0x0 PUSH2 0xC52 DUP5 DUP3 DUP6 ADD PUSH2 0xC19 JUMP JUMPDEST SWAP2 POP POP SWAP3 SWAP2 POP POP JUMP JUMPDEST PUSH2 0xC64 DUP2 PUSH2 0x8B1 JUMP JUMPDEST DUP3 MSTORE POP POP JUMP JUMPDEST PUSH1 0x0 PUSH1 0x20 DUP3 ADD SWAP1 POP PUSH2 0xC7F PUSH1 0x0 DUP4 ADD DUP5 PUSH2 0xC5B JUMP JUMPDEST SWAP3 SWAP2 POP POP JUMP JUMPDEST PUSH2 0xC8E DUP2 PUSH2 0x92F JUMP JUMPDEST DUP2 EQ PUSH2 0xC99 JUMPI PUSH1 0x0 DUP1 REVERT JUMPDEST POP JUMP JUMPDEST PUSH1 0x0 DUP2 MLOAD SWAP1 POP PUSH2 0xCAB DUP2 PUSH2 0xC85 JUMP JUMPDEST SWAP3 SWAP2 POP POP JUMP JUMPDEST PUSH1 0x0 PUSH1 0x20 DUP3 DUP5 SUB SLT ISZERO PUSH2 0xCC7 JUMPI PUSH2 0xCC6 PUSH2 0x887 JUMP JUMPDEST JUMPDEST PUSH1 0x0 PUSH2 0xCD5 DUP5 DUP3 DUP6 ADD PUSH2 0xC9C JUMP JUMPDEST SWAP2 POP POP SWAP3 SWAP2 POP POP JUMP JUMPDEST PUSH32 0x4E487B7100000000000000000000000000000000000000000000000000000000 PUSH1 0x0 MSTORE PUSH1 0x32 PUSH1 0x4 MSTORE PUSH1 0x24 PUSH1 0x0 REVERT JUMPDEST PUSH32 0x4E487B7100000000000000000000000000000000000000000000000000000000 PUSH1 0x0 MSTORE PUSH1 0x11 PUSH1 0x4 MSTORE PUSH1 0x24 PUSH1 0x0 REVERT JUMPDEST PUSH1 0x0 PUSH2 0xD47 DUP3 PUSH2 0x92F JUMP JUMPDEST SWAP2 POP PUSH32 0xFFFFFFFFFFFFFFFFFFFFFFFFFFFFFFFFFFFFFFFFFFFFFFFFFFFFFFFFFFFFFFFF DUP3 EQ ISZERO PUSH2 0xD7A JUMPI PUSH2 0xD79 PUSH2 0xD0D JUMP JUMPDEST JUMPDEST PUSH1 0x1 DUP3 ADD SWAP1 POP SWAP2 SWAP1 POP JUMP INVALID LOG2 PUSH5 0x6970667358 0x22 SLT KECCAK256 RETURNDATACOPY PUSH8 0xC5DC0DFBDD0590EA 0xAF 0x5D AND DIFFICULTY SELFDESTRUCT DUP4 MSIZE XOR MULMOD 0x21 0xC8 DUP5 0x4B GT SHR 0xE9 0xEA DUP4 0x25 0x25 0xE4 PUSH4 0x64736F6C PUSH4 0x4300080B STOP CALLER "
        },
        "methodIdentifiers": {
          "c_0x99f33f08(bytes32)": "eb660cdd",
          "tokenBalance(address,address)": "1049334f",
          "tokenBalances(address,address[])": "3ad206cc"
        }
      }
    }
  }
}